:020000040800F2
:1000000078280124AD020008D58B0008E988000893
:10001000D18B0008451A000815A200080000000056
:10002000000000000000000000000000A58E000895
:10003000C51F000800000000D98B0008A78E00082B
:10004000CB020008CB020008CB020008CB0200085C
:10005000CB020008CB020008CB020008CB0200084C
:10006000CB020008CB020008CB020008491A0008A6
:10007000CB020008CB020008CB020008CB0200082C
:10008000CB020008CB020008351A0008CB0200089A
:10009000CB020008CB020008CB020008CB0200080C
:1000A000CB020008CB020008CB020008CB020008FC
:1000B000CB020008CB020008CB020008CB020008EC
:1000C000CB020008CB020008CB020008CB020008DC
:1000D000CB02000805A20008CB020008CB020008F2
:1000E000CB020008CB02000800000000CB02000891
:1000F000CB020008CB020008CB020008CB020008AC
:10010000CB020008CB020008CB020008CB0200089B
:10011000CB020008CB020008CB020008CB0200088B
:10012000CB020008CB020008CB020008CB0200087B
:10013000CB020008CB020008CB020008CB0200086B
:1001400000000000000000000000000000000000AF
:10015000CB020008CB020008CB020008CB0200084B
:10016000CB020008CB020008CB020008CB0200083B
:10017000CB020008CB020008CB0200080000000000
:10018000CB020008CB020008CB020008CB0200081B
:10019000CB020008CB020008CB020008CB0200080B
:1001A000CB020008CB020008CB020008CB020008FB
:1001B000CB020008CB020008CB020008CB020008EB
:1001C000CB020008CB020008CB020008CB020008DB
:1001D000CB020008CB020008CB020008CB020008CB
:1001E000CB020008CB020008CB020008CB020008BB
:1001F000CB020008CB020008CB020008CB020008AB
:10020000CB020008CB020008CB020008CB0200089A
:10021000CB020008CB020008CB020008CB0200088A
:10022000CB020008CB020008CB020008000000004F
:10023000CB020008CB02000800000000CB0200083F
:10024000CB020008CB020008CB020008CB0200085A
:10025000CB020008CB020008CB020008CB0200084A
:10026000CB020008CB020008CB020008CB0200083A
:10027000CB020008CB020008CB02000800000000FF
:10028000CB020008CB020008CB02000800000000EF
:1002900000000000CB020008DFF80CD000F0B2FA3A
:1002A00000480047FDBE0008782801240748804721
:1002B0000748804707480047FEE7FEE7FEE7FEE7FE
:1002C000FEE7FEE7FEE7FEE7FEE7FEE7CD1F0008DC
:1002D000858F0008990200082DE9F05F054600208F
:1002E00092469B4688460646814640241BE02846A7
:1002F00041464746224600F0A5F853465A46C01AE2
:10030000914110D311461846224600F08CF82D1A60
:1003100067EB01084F4622460120002100F083F8D8
:1003200017EB00094E41201EA4F10104DFDC484612
:1003300031462A464346BDE8F09F2DE9FE439946E3
:1003400015468846074601AC022942D3002D40D00D
:1003500000200290A8F101004FF0FF36009022E04B
:1003600000FB057201FB057011464A4690470028C4
:1003700005DC54F82600304444F8260013E0606899
:100380002A4600FB057154F8040C00FB057007E0D9
:100390000B7890F800C001F801CB00F8013B521E29
:1003A000002AF5D1764254F8040C61688842D7DC03
:1003B0004B462A463846FFF7C0FF54F8040C4B461C
:1003C000A8EB0001401C00FB05702A46491EFFF700
:1003D000B4FFBDE8FE83D2B201E000F8012B491E54
:1003E000FBD270470022F6E710B513460A460446D2
:1003F0001946FFF7F0FF204610BD30B50B46014609
:1004000000202022012409E021FA02F59D4205D3B3
:1004100003FA02F5491B04FA02F52844151EA2F15D
:100420000102F1DC30BD202A04DB203A00FA02F19F
:10043000002070479140C2F1200320FA03F31943D2
:1004400090407047202A04DB203A21FA02F0002174
:10045000704721FA02F3D040C2F1200291400843D4
:10046000194670472DE9FE4F804681EA0300C00F10
:100470000C46009021F0004123F00045B8EB02004B
:10048000A94105D24046214690461C460B460246ED
:1004900023F00040104347D0270DC7F30A00C3F3F1
:1004A0000A510290401A019040286BDAC3F31300FE
:1004B00040F4801B0098924620B10023D2EB030A3F
:1004C00063EB0B0B01985946C0F140025046FFF711
:1004D000AAFF06460D4650465946019A00F0A4F977
:1004E00010EB08006141002487EA115284EAE773A7
:1004F0001A4340D0009A62B3019A012A4FEA075288
:1005000015DC001B61EB02014FF0004202EA0752CA
:10051000CDE90042001C41F5801132462B4600F027
:10052000A4F903B0BDE8F08F40462146F9E7001B6F
:1005300061EB0201001C41F5801300185B4120189B
:10054000A2F5001747EB030140EAD570B6196D41DB
:1005500011E06D084FEA360645EAC0754FEA0752CA
:10056000001B61EB0201001C41F5801149084FEAB4
:1005700030000019514132462B4603B0BDE8F04F20
:1005800000F064B90098012240000023D0EB020281
:1005900063EBE073009821464FEAE074B8EB00008B
:1005A00061EB0401E9E783F000435BE781F0004180
:1005B00058E72DE9FE4F81EA030404F0004421F0DE
:1005C000004100944FF0000B23F0004350EA010477
:1005D0005ED052EA03045BD0C3F30A54C1F30A5558
:1005E0002C44A4F2F3340194A0FB0254C1F3130190
:1005F00041F48011C3F3130343F4801301FB02445D
:1006000000FB034E840A970A44EA815447EA835761
:10061000A4FB076802958D0A05FB07854FEA932C1A
:1006200004FB0C542705029D4FEA065847EA16378B
:10063000B5EB08056EEB070C870E920E47EA8117A3
:1006400042EA8312A7FB0201B6EB0B0164EB000444
:100650002B0D43EA0C335E1844EB1C50DA4651462E
:10066000E7FB0201C5F313044FEA0B3343EA1453CB
:100670004FEA0432019C43EA0603A4F10C040294FD
:10068000009CCDE900B400F0F0F803B0BDE8F08FB5
:1006900000200146F9E72DE9F04D81EA030404F05A
:1006A000004B21F0004514464FF0000A23F00041B2
:1006B00050EA050220D054EA01021DD0C5F30A57C2
:1006C0000246C5F31303C1F31300C1F30A5640F405
:1006D000801543F48013A7EB0608101BD64608F2DA
:1006E000FD3873EB050002D308F1010801E0921810
:1006F0005B41B8F1000F03DA00200146BDE8F08D40
:1007000000204FF48011064684460EE0171B73EB61
:10071000050705D3121B63EB050306434CEA010CE6
:1007200049084FEA300092185B4150EA0107EDD1C9
:1007300052EA030012D082EA040083EA050108436A
:1007400005D0101BAB4106D20122002306E0002297
:100750004FF0004302E06FF0010253101AEB060065
:100760004CEB085110EB0A0041EB0B01BDE8F04DDA
:1007700000F06CB870B521F0004303430CD0C1F316
:100780000A550024D5EB040564EB0403D617AD1A13
:10079000B34102DB0020014670BD201841EB02513D
:1007A00070BDC1F30A52C1F3130140F2FF3341F4AB
:1007B00080119A4202DA00200146704740F233432A
:1007C0009A42A2F2334202DC5242FFF73BBEFFF7ED
:1007D0002ABE000030B5041E71F1000404DB4FF0A6
:1007E0000044404264EB0101141E73F1000405DB78
:1007F0001C464FF00043524263EB0403994208BF8A
:10080000904230BD064C074D06E0E06840F0010321
:1008100094E8070098471034AC42F6D3FFF740FD48
:10082000F064010810650108202A06DBCB17203A86
:1008300041FA02F043EAE07306E041FA02F3D040E5
:10084000C2F12002914008431946704710B5141EAA
:1008500073F1000408DA401C41F1000192185B4179
:100860001A4301D120F0010010BD2DE9F04D924650
:100870009B4611B1B1FA81F202E0B0FA80F2203267
:100880009046FFF7D0FD04460F4640EA0A0041EAD1
:100890000B0153465A46084313D0114653EA010050
:1008A00019D0C8F140025046FFF7CCFD05460E4670
:1008B000504659464246FFF7B6FD084305D0012091
:1008C00004E020463946BDE8F08D0020054346EAA5
:1008D000E0762C4337430A986305E40AA0EB08004E
:1008E0000022FD0A44EA47540A3002D5002001469E
:1008F000E9E7010510196941DDE908450019694179
:10090000BDE8F04DA2E70000B0B5002921D00023DA
:1009100002EB430C32F813E0BCF802C002332EF0B5
:10092000030E2CF0030C50F80E4050F80C508B4284
:1009300040F80E5000EB0E0540F80C4000EB0C04A4
:10094000D5F804C0D4F804E0C5F804E0C4F804C045
:10095000DED3B0BD2DE9F041048816460746012AD2
:1009600098460D460CD1E4B3281D214690ED000AAF
:10097000B1EE400A013980ED000A00F10800F5D11E
:10098000FF2C0CDDB4F5806F10DBB4F5805F22D056
:10099000B4F5006F11D0B4F5806F17D021E03F2C73
:1009A00010DC102C12D0202C07D01AE0B4F5807F78
:1009B00003D0B4F5007F0ED013E03846294600F08E
:1009C000F7F80EE0402C06D0802C0AD13846294694
:1009D00000F02EF805E07A6801232846214600F051
:1009E000D5FBB8F1000F04D0B9892846BA68FFF7E3
:1009F0008BFF012E1AD100EE104A002CB8EE400AEF
:100A000014D0B7EE001A81EE000A00BF95ED001A6F
:100A100095ED012A20EE011A013C20EE422A85EDD7
:100A2000001A85ED012A05F10805EFD1BDE8F08136
:100A30002DE9F0472DED068B038880460020D8F87D
:100A40000420B0EBD30F084601EB830A4FEA5309A9
:100A500000F09E80D9080AEB890C00EB890E4C420D
:100A6000002700BFC3190AEB070593ED000A95EDB7
:100A7000004A30EE048A0EEB07010CEB070630EE5D
:100A8000440A93ED011A93ED022A93ED033A95ED92
:100A9000015A95ED026A95ED037AD1ED000AD1ED88
:100AA000011AD1ED022AD1ED033AD6ED004AD6ED76
:100AB000015AD6ED026AD6ED037A31EE059A83ED3E
:100AC000008A32EE06AA013433EE078A83ED019ADA
:100AD00030EEA49A83ED02AA31EEA5AA83ED038A33
:100AE00032EEA68A33EEA74A81ED009A31EE451A1E
:100AF00081ED01AA81ED028A02EB070381ED034A31
:100B000034EEE05AD3ED000A35EEE14A07F1100762
:100B100061EE201AD3ED014A21EE241A40EE641A48
:100B200065EE245A64EE244A00EE201A44EE605A20
:100B300045EE204A32EE460A85ED001A33EE471A9A
:100B4000C5ED011A36EEE22AC6ED005A37EEE33A59
:100B5000C6ED014A93ED034A93ED026A21EE045A71
:100B600021EE061A22EE047A63EE040A00EE065A1B
:100B700000EE441A03EE467A42EE060A85ED025A6A
:100B800085ED031A86ED027AC6ED030A7FF46AAF9B
:100B90000223494600F0FAFAD8F80420022350460E
:100BA0004946BDEC068BBDE8F04700F0EFBA000007
:100BB0002DE9F04F81B02DED0C8B90B0844600886C
:100BC00091ED000A420801EB820404EB820591EDED
:100BD000011A95ED002A95ED013A30EE024A0F46D2
:100BE00030EE420A05EB820631EE032A910031EE27
:100BF000431A0F9194ED003A94ED015A30EE056AD4
:100C0000810871EE430A009174EE432A6FF00101EE
:100C100072EE453A01EB900A30EE450AD00034EE10
:100C2000034A6FF0070832EE052A0E9031EE031AE0
:100C300002EB420196ED007AD6ED011A36EE616ABA
:100C400008EB021070EE870A4FEA810972EEC72A9C
:100C50000C9073EEE13A059730EE210A08EB810320
:100C600034EE073A6FF0030132EE212A029431EE9E
:100C7000471A01EBC20E87ED003A4FF0000B87EDEB
:100C8000012A002784ED006AA7EB5A0AC4ED010A85
:100C900001EB8204C5ED002A0020C5ED013A86ED86
:100CA000000A86ED011ADCF8041003950196CDF8D0
:100CB00010C006910D90C1E0C518CDF8249000EB4E
:100CC0000409CDF81CA099ED006A95ED017A76EE45
:100CD000070A00EB0E01D1ED002AF246DDF830E004
:100CE00070EEA23A089400EB0E0436EE476AD4ED9B
:100CF000015A73EEA53A0F9859ED011AD5ED004A45
:100D000071EEA46A083051ED017A94ED008AC9EDC4
:100D1000003A71EEE41A51ED013A76EEA33AAEF1E3
:100D2000080E94ED007A32EEE59AAAF1080A33EE45
:100D3000877A083B76EE673A31EE89BA09ED017A97
:100D400033EE887ADDF82490D6ED023AD6ED034AE8
:100D500025EE24AA0F9025EE235A0E9827EE24CADA
:100D600008302BEE24DA0E9004EE23AA0D9804EE40
:100D7000645A183030EEE24A0D9076EEE70A82EDC2
:100D800002AA0BEE63CA82ED035A07EE23DA09F1D9
:100D9000080934EE654A70EEC80A81ED00CA01ED1B
:100DA00001DA97ED045A97ED057A63EE072A0B9F57
:100DB00023EE053A083760EE873A64EE074A42EEC2
:100DC000052A02EE473A54EE453A40EEC54ACCEDCC
:100DD000022A38EE674A8CED033AC5ED013A39EE46
:100DE000615AC5ED004A9BED062A21EE027A34EEE7
:100DF000464A9BED073A21EE031ADDF828B000EED3
:100E0000437ACDF830E024EE036AD64625EE033A65
:100E1000DDF81CA000EE021A0BF1100B05EE426A81
:100E20000AF1010A04EE023A88ED021A88ED037A0B
:100E300084ED016A84ED003A089C083C0598BAF1FB
:100E4000000F0E9A00EB070100EB020C0F9A91EDD8
:100E5000020A9CED022A30EE026A024430EE420A97
:100E600000EB090891ED031A9CED033A92ED032A79
:100E700031EE037A069D31EE431A0B9730EE023ABB
:100E8000CDF828B0D2ED020AD8ED032A33EE624A3B
:100E900005EB070636EE603A05EB0B0736EE206AE7
:100EA000D8ED021A31EE605A36EE216A77EE423AF8
:100EB00030EE420A81ED026A31EE201A92ED036AA9
:100EC00037EE066A98ED037A35EE215A36EE076A58
:100ED00033EE612A33EEE23A30EE220A81ED036A04
:100EE00031EE611A0D9905EB010B7FF4E5AE96ED3D
:100EF000026A96ED037A65EE070A009D25EE065A12
:100F00000423294644EE060A04EE475AC2ED020ABB
:100F100082ED035A97ED044A97ED055A23EE056AD0
:100F2000069A23EE043A02EE046A02EE453A8CED8C
:100F3000026A8CED033A9BED062A9BED073A21EEFF
:100F4000034A21EE021A00EE024A00EE431A88ED2F
:100F5000024A88ED031A00F019F9049C0423626820
:100F60002946029800F012F9626804230398294682
:100F700000F00CF9626804230198294610B0BDEC1A
:100F80000C8B01B0BDE8F04F00F000B92DE9F04343
:100F900081B02DED028B0023B3EB920F90460C46EF
:100FA000054669D04FEA9800474200BF95ED010A17
:100FB00020EE008A95ED000A00EE008AB0EE480AA5
:100FC00009F075FEB4EEC00AF1EE10FA03D7B0EEE8
:100FD000480A09F06CFE84ED000A95ED030A20EE44
:100FE000008A95ED020A00EE008AB0EE480A09F088
:100FF0005EFEB4EEC00AF1EE10FA03D7B0EE480A76
:1010000009F055FE84ED010A95ED050A20EE008AEF
:1010100095ED040A00EE008AB0EE480A09F047FE9A
:10102000B4EEC00AF1EE10FA03D7B0EE480A09F0A8
:101030003EFE84ED020A05F1200995ED070A20EE37
:10104000008A04F1100695ED060A00EE008AB0EE63
:10105000480A09F02CFEB4EEC00AF1EE10FA03D7EC
:10106000B0EE480A09F023FE013784ED030A4D462D
:1010700034469BD134464D4618F003001DD04642FD
:1010800095ED010A20EE008A271D95ED000A00EE7D
:10109000008AB0EE480A09F00AFEB4EEC00AF1EE8A
:1010A00010FA03D7B0EE480A09F001FE013684EDCC
:1010B000000A05F108053C46E2D1BDEC028B01B007
:1010C000BDE8F083F0B54C1E4FF0000CBCEB940F64
:1010D00090ED000A00F1040E3AD001262546A7083B
:1010E00066F301057E424FF0000C04279EED001AC6
:1010F0009EED012A80FE014AB4EEC10A9EED023A3D
:10110000F1EE10FA84FE021AB4EEC24A9EED030A12
:10111000B8BFA7F1030CF1EE10FA81FE032AB4EE7A
:10112000C31A0EF1100EB8BFA7F1020CF1EE10FABF
:10113000B4EEC02A82FE000AB8BFA7F1010CF1EE9E
:1011400010FAB8BFBC4604370136CFD100EB850E8C
:1011500014F0030012D040429EED001AB4EEC10A12
:1011600080FE011A0EF1040EF1EE10FAB8BF01EB89
:10117000000CB0EE410A0130EED101E0B0EE401AB1
:1011800082ED001AC3F800C0F0BD00002DE9F04F59
:1011900081B02DED108B96B0CDE903320190043073
:1011A0009FED020A8C460290149101E0F304353F52
:1011B0004FEADC084FEAC80ACDF81C80AAEBDC0035
:1011C000C00008EB480E139008EB88024FEACC07EA
:1011D0004FEA0E14D000029A4FEA481315904FEAD6
:1011E00008160D934FEACE054FF0000BCDE90B56D4
:1011F00002EB0309159812ED011A19ED013A02EB01
:101200000A0831EE035A02EB000E0B9818ED016A42
:1012100031EE431A91191EED013A131976EE031AB5
:10122000564636EE433A02EB000A139851ED012A76
:1012300013ED016A104472EE863A5AED014A32EE1D
:10124000C66AE34450ED012A74EEA25A3D4674EE9C
:10125000E22A75EE634A35EE235A71EEA53A92ED15
:10126000002A99ED004A98ED007ADEED000AD1EDF2
:10127000006A71EEE51A75EE235A35EE635A72EE86
:10128000043A32EE442A37EE204A37EE607AD3ED44
:10129000000A76EEA07A76EEE00ADAED006A90EDCA
:1012A000008A36EE889A42ED015A76EEC86A09ED58
:1012B000015A33EEA78A34EE09AA73EEE73A34EE08
:1012C000494A78EE0A7A38EE4A8A33EE62AA34EE58
:1012D000849AC2ED007A34EEC44A89ED008A73EE36
:1012E000E14A3A4471EEA31A01ED019A33EE223A33
:1012F0006AEE002AC1ED004A77EE663A03ED014A34
:1013000037EE267AC3ED001A71EE626A149931EE57
:10131000221A0D9B23EE003A8B4563EE802A27EEBE
:10132000007A76EE433A36EE033A32EE625A30EE07
:10133000876A32EE222A30EEC77A71EE060A32EE62
:10134000434A31EE461A33EE022A48ED010A36EEE0
:10135000873A88ED004A00ED011A35EE631A80EDF8
:10136000002A36EEC72A0EED013A33EE853A8EEDAD
:10137000001A0AED012A8AED003AB2460C9EFFF4EB
:1013800037AFBCF1400FC0F08B810EA880E89014FD
:101390000398002480B2019E012506900798C0EBB7
:1013A000C000C000059000BF06980444049B03EBF6
:1013B000C4010A9491ED000A03EB04128DED130AA7
:1013C00092ED000A04EB44028DED120A03EB441186
:1013D00008964FEAC20A099503EBC20091ED004A54
:1013E00004EB84014FEA021B03EB021290ED003A7A
:1013F000C80003EBC10192ED006AC4EBC4024FEADE
:10140000C40C91ED005AD10003EBC20292ED007AB8
:101410000CF104024FEA041E1A44D2ED000A0EF148
:10142000040204301A441844D2ED001A0AF10402EE
:10143000D0ED004A0BF104004FEA44191A44184455
:10144000D2ED002A09F10402D0ED005A081D1A4419
:101450001844D2ED003AD0ED006AB4462B460D9DFB
:101460009FED921ADDE90B76DDF8148010980CEBF5
:1014700005010CEB00021598DCED027A91ED028A71
:1014800060440E9C37EE88BA0CEB060B77EEC87AF8
:101490000CEB040992ED028A90ED029A38EE09CA2B
:1014A0000CEB070E38EE49AA0CEB080A9BED028AFA
:1014B00099ED029A38EE09DA38EE499A9EED028AE1
:1014C0009AED02EA38EE0EFA7BEE0D8A38EE4EEA1D
:1014D0007CEE0F9A3BEE4DBA3CEE4FCA38EEA98A2D
:1014E00038EEE9DA9CED03FAD1ED038A7FEE289A13
:1014F0003FEE68FAD2ED038AD0ED03AA78EEAABADD
:1015000078EEEA8ADBED03AAD9ED03CA7AEEACDA0B
:101510007AEEECAADEED03CADAED03EA7CEEAEFA6F
:101520008CED028A7CEEEECA79EEEDEA3BEEEF0A34
:1015300079EEAD9A7BEEAFBA7BEE00DA3BEE400A75
:1015400039EEEBBA9DED122A79EEAB9A7EEECCBA6B
:1015500063EE8BFA3CEE2ECACCED039A24EE0BBA66
:1015600062EE2DEA44EE0DFA03EECDBA22EE2BDA4E
:1015700041EEABEAC1ED02FA66EE00BA81ED03BAC4
:1015800001EEEDDA66EE0CDACBED02EA45EE8CBA4E
:101590003AEE4ECA8BED03DA45EEC0DA3AEE0E0AA9
:1015A000C9ED02BA2CEE01AA38EEECCAC9ED03DA95
:1015B00038EEACEA77EECA8A77EE8A7A20EE010A34
:1015C0002CEE01AA2EEE01CA39EE40EA39EE000AED
:1015D0003FEE4A9A7AEE8CCA3FEE0AAA3AEECCCA9D
:1015E00037EEACFA77EEEC7A78EE8CAA38EECCCA0D
:1015F0007AEE408A30EE0A0A39EE4EAA9DED132AA1
:1016000026EE808A27EE000A60EEA8CA3EEE099A0E
:1016100022EE28EA07EE278A24EE8ABA06EEE70AC7
:1016200065EE0A7A42EE0FCA00EECFEA05EE2ABA5C
:1016300044EEEA7AC2ED02CA22EE89AA82ED03EAFA
:1016400023EE099A8AED028A8AED030A80ED02BA36
:1016500003EE0CAAC0ED037A02EECC9A1198034473
:10166000149883420F9884448EED02AA8EED039A5B
:10167000FFF4FCAE099D01350798089E854206F1EE
:1016800008060A9CFFF490AE11983F2803984FEA91
:10169000C000DDF81CC09FED050A03903FF688AD41
:1016A00016B0BDEC108B01B0BDE8F08FF304353FF0
:1016B00070B504464F492068884203D04E492068DF
:1016C000884208D14D48006800F4403008B101203C
:1016D00009E0002007E04A48006800F4403008B103
:1016E000012000E00020B8B105F0D6FD0546606895
:1016F000B0F5803F06D0B0F5003F04D0B0F5403FD4
:1017000008D105E000BF6068000CB5FBF0F502E011
:10171000AD0800E000BF2BE04FF40020002104F0F2
:101720001FF905466068C0F31101F9B980140C284F
:101730001CD2DFE800F01B060708090A0B1113157D
:10174000171900BF00BF00BF00BF00BF6068800C5A
:101750004000B5FBF0F50AE02D0908E06D0906E050
:10176000AD0904E0ED0902E02D0A00E000BF00BF72
:1017700003F01CFC41F20301884210D82148854245
:1017800006D92068806840F48070216888602FE066
:101790002068806820F480702168886028E06D08E7
:1017A0001948854206D82068806820F44070216876
:1017B00088601DE01548854208D82068806820F4BC
:1017C000407040F480702168886011E010488542C4
:1017D00008D82068806820F4407040F400702168C8
:1017E000886005E02068806840F440702168886067
:1017F00070BD00000020024000210240082302408A
:1018000008630258002D3101105E5F0020BCBE004D
:1018100040787D0170B50546AC6B606D00F05000FE
:1018200098BB606D40F4007060652068006800F04F
:101830000800A8B1206807F08EF810B32068C068CF
:1018400000F40050E8B9606D20F480706065606D50
:1018500000F48050A8B9606D40F00100606510E0B0
:101860002068C06800F0030058B9606D20F48070F3
:101870006065606D00F4805018B9606D40F0010043
:101880006065204601F030F80CE0FFE7606D00F085
:10189000100018B1204601F038F803E0E06CC16C8C
:1018A0002846884770BD70B50546AC6B606D40F04A
:1018B00040006065A06D40F00400A065204601F086
:1018C00024F870BD70B50446A56B284601F01CF8DD
:1018D00070BD000070B50446206807F01EF806468B
:1018E000206807F01FF898B396BB2068806800F066
:1018F0000D0001280AD1206881681A4A1140891C0C
:10190000816000BF03202168086009E0606D40F03D
:1019100010006065A06D40F00100A065012070BD61
:1019200003F04AFB054614E003F046FB401B022887
:101930000FD92068806800F0010050B1606D40F060
:1019400010006065A06D40F00100A0650120E6E791
:1019500005E02068806800F001000028E4D1002044
:10196000DDE70000C0FFFF7F70B50446206806F089
:10197000D9FF002851D1206880682949084048B122
:10198000606D40F010006065A06D40F00100A06542
:10199000012070BD206806F0A9FF03F00DFB05468D
:1019A000204A2168914203D01F4A2168914201D107
:1019B0001E4900E01E49084606F0A5FF06461A49E2
:1019C0002068884201D1174800E0206821688842D9
:1019D00000D00EBB1AE0206806F0A4FF10B9206802
:1019E00006F084FF03F0E8FA401B02280ED92068B5
:1019F000006800F0010048B9606D40F010006065BB
:101A0000A06D40F00100A0650120C2E720680068D9
:101A100000F001000028DED000BF0020B9E7000080
:101A20003F000080002002400021024000230240CD
:101A30000063025810B5024800F068FF10BD0000B6
:101A4000B820012400BFFEE710B5024801F0A0FF56
:101A500010BD00001C2101240146374A086890424D
:101A600049D0354A18320868904244D0324A303260
:101A7000086890423FD0304A4832086890423AD0D5
:101A80002D4A60320868904235D02B4A7832086877
:101A9000904230D0284A9032086890422BD0264A93
:101AA000A8320868904226D0244A0868904222D082
:101AB000224A1832086890421DD0204A3032086805
:101AC000904218D01D4A48320868904213D01B4AF1
:101AD0006032086890420ED0184A78320868904206
:101AE00009D0164A90320868904204D0134AA832AE
:101AF0000868904201D1012000E00020B0B10A78CE
:101B0000103A1823B2FBF3F000F007020C4B9A5C7A
:101B1000CA65032805D90A686FF30902121D8A6590
:101B200003E00A686FF309028A6503E0086820F0A1
:101B3000FF008865886D7047100002401004024065
:101B400070C3000810B502682B4C0368A34222D072
:101B5000294C14340368A3421DD0274C2834036851
:101B6000A34218D0244C3C340368A34213D0224C27
:101B700050340368A3420ED01F4C64340368A34260
:101B800009D01D4C78340368A34204D01A4C8C341D
:101B90000368A34201D1012300E000238BB1037845
:101BA000083B1424B3FBF4F1144B03EB81030366ED
:101BB000124B8033436601F01F040123A340836668
:101BC00018E00378103B1824B3FBF4F10C4B9A4255
:101BD00004D80B4BA83B9A4200D30831094B03EBC6
:101BE00081030366074B8033436601F01F04012322
:101BF000A340836610BD00000854025800580258E4
:101C0000B8040240000802400179A9B3082940D86D
:101C1000204B02689A4222D01E4B143302689A422B
:101C20001DD01C4B283302689A4218D0194B3C3304
:101C300002689A4213D0174B503302689A420ED072
:101C4000144B643302689A4209D0124B783302680D
:101C50009A4204D00F4B8C3302689A4201D1012280
:101C600000E000224AB14A1E0B4B03EB8202C2661F
:101C7000094A4032026708E00BE04A1E074B03EBBB
:101C80008202C266054A403202674A1E012393401F
:101C9000436770470854025800590258000902402F
:101CA000014600208A69D2B98A6A32B1012A0DD070
:101CB000022A03D0032A10D10EE000BFCA6A02F044
:101CC0008072B2F1807F00D1012007E0CA6AB2F1D0
:101CD000C07F00D1012001E000E000BF36E08A694A
:101CE000B2F5005F1BD18A6A32B1012A07D0022AFD
:101CF00003D0032A11D10AE000BF01200EE0CA6A16
:101D000002F08072B2F1807F00D1012006E0CA6A41
:101D1000B2F1C07F00D1012000E000BF16E08A6A66
:101D200032B1012A05D0022A04D0032A0CD103E0E3
:101D300000BF00BF012008E0CA6A02F08072B2F161
:101D4000807F00D1012000E000BF00BF704700008D
:101D5000F0B5856D846D984F0668BE4270D0964F81
:101D600018370668BE426BD0934F30370668BE42C4
:101D700066D0914F48370668BE4261D08E4F6037BB
:101D80000668BE425CD08C4F78370668BE4257D09A
:101D9000894F90370668BE4252D0874FA8370668F1
:101DA000BE424DD0854F0668BE4249D0834F18379A
:101DB0000668BE4244D0814F30370668BE423FD0ED
:101DC0007E4F48370668BE423AD07C4F603706687F
:101DD000BE4235D0794F78370668BE4230D0774F53
:101DE00090370668BE422BD0744FA8370668BE42B3
:101DF00026D0734F0668BE4222D0714F1437066852
:101E0000BE421DD06E4F28370668BE4218D06C4FB8
:101E10003C370668BE4213D0694F50370668BE4251
:101E20000ED0674F64370668BE4209D0644F7837DA
:101E30000668BE4204D0624F8C370668BE4201D1AC
:101E4000012600E000263EB1D0E919767E60C66E1C
:101E500016B1D0E91C767E60574F0668BE4249D065
:101E6000554F18370668BE4244D0534F3037066886
:101E7000BE423FD0504F48370668BE423AD04E4F20
:101E800060370668BE4235D04B4F78370668BE4291
:101E900030D0494F90370668BE422BD0464FA83706
:101EA0000668BE4226D0454F0668BE4222D0434F48
:101EB00018370668BE421DD0404F30370668BE4214
:101EC00018D03E4F48370668BE4213D03B4F6037AC
:101ED0000668BE420ED0394F78370668BE4209D038
:101EE000364F90370668BE4204D0344FA837066894
:101EF000BE4201D1012600E00026DEB190F85C6010
:101F000006F01F073F26BE40AE600668366826F41E
:101F1000802607683E60066873608668402E04D19C
:101F20000668B2600668F16044E00668B160066861
:101F3000F2603FE0224F0668BE4222D0204F1437A5
:101F40000668BE421DD01E4F28370668BE4218D014
:101F50001B4F3C370668BE4213D0194F50370668F6
:101F6000BE420ED0164F64370668BE4209D0144FE9
:101F700078370668BE4204D0114F8C370668BE42DF
:101F800001D1012600E00026A6B190F85C6006F0C1
:101F90001F070126BE406660066873608668402E93
:101FA00004D10668B2600668F16003E00668B160BB
:101FB0000668F260F0BD000010000240100402400C
:101FC00008540258704772B600BFFEE70748006821
:101FD00040F002000549086000BF04480838006866
:101FE00000F400500028F8D0704700000C48025858
:101FF0002DE9F0412DED028B07460C4615461E4695
:102000009FED380AB0EE408A002017E036F8101035
:1020100000EE101AB8EE400B9FED331B20EE011BB3
:102020009FED332B81EE020BB7EEC81A30EE010B99
:10203000B7EEC00BB0EE408A411C88B2B0F5805FAD
:10204000E4DB9FED2D0AC8EE000AB0EE608A0020A6
:1020500023E036F8101000EE101AB8EE400ADFED5B
:10206000270A20EE200ADFED260AC0EE208A38EE8D
:10207000C80A07EB8001D1ED000A20EE200A04EB2C
:10208000C00181ED000A9FED170A4100491C04EBD5
:10209000810181ED000A411C88B2B0F5805FD8DB78
:1020A0000123002221461748FEF754FC4FF48052CA
:1020B00029462046FEF76AFF00200CE005EB800170
:1020C00091ED000ADFED100A80EE201A05EB800189
:1020D00081ED001A401CB0F5805FEFDBBDEC028B98
:1020E000BDE8F081000000006666666666660A402C
:1020F000000000000000F0400000804533335340F2
:1021000000008047E0E4000800000045F8B5044600
:102110000D4616460020009000BF94F8500001289C
:1021200001D10220F8BD012084F8500000BF2046F4
:10213000FFF7D0FB0746A7BB606D20F4885040F046
:1021400002006065206805F4803141F0004106F02E
:10215000804211438268194B1A401143816000BFCD
:1021600013E00098401C00901549009888420CD359
:10217000606D20F0020040F01000606500BF00209C
:1021800084F8500000BF0120CCE720688168C90FA7
:102190000029E6D1606D20F0020040F0010060658A
:1021A00004E0FFE7606D40F01000606500BF0020B4
:1021B00084F8500000BF3846B4E70000C0FFFE3F7F
:1021C00000F8C3257047704770477047704700009C
:1021D0002DE9F04399B004460E464FF000083068F0
:1021E00000B100BF00BF94F85000012803D10220C5
:1021F00019B0BDE8F083012084F8500000BF002032
:102200001590169046492068884202D145480090B2
:1022100001E000200090009850B9606D40F020006F
:10222000606500BF002084F8500000BF0120DFE798
:10223000009806F08BFB0746206806F087FB002815
:1022400061D1002F5FD136492068884203D03549DB
:102250002068884201D1344800E03448054630689F
:1022600058B3A86820F4404071680843A8602C491E
:102270002068884203D02B492068884201D12A482F
:1022800000E02A482849884209D1254806F04FFB3A
:102290008146244806F04BFB49EA000002E024484E
:1022A00006F045FB70BBB16830680843A96840F68A
:1022B0001F7291430843A8602BE0A86820F44040B7
:1022C000A86017492068884203D0164920688842D0
:1022D00001D1154800E015481349884209D110483A
:1022E00006F025FB81460F4806F021FB49EA000075
:1022F00002E00F4806F01BFB20B9A86840F61F71EA
:102300008843A86005E0606D40F0200060654FF0F4
:10231000010800BF002084F8500000BF404667E776
:1023200000200240002102400023024000630258C6
:10233000006002582DE9F84F04460D464FF0000AA0
:102340000020009094F83800012800D100E000BF80
:10235000FC49E868884200D00EE0FB4920688842CA
:1023600000D100BFF9492068884200D100BFF84978
:102370002068884200D100BF00BF94F850000128B7
:1023800002D10220BDE8F88F012084F8500000BF80
:10239000206806F0D6FA002870D1286800F00040C6
:1023A000A8B92068C1692868C0F3130018B9286863
:1023B000C0F3846004E0286890FAA0F0B0FA80F0DE
:1023C00000F01F020120904001432068C161216894
:1023D000D5E9002001F1300CC0F3012B0CEB8B038D
:1023E000D3F800C000F01F0E4FF01F0B0BFA0EFBCE
:1023F0002CEA0B0C00F01F0BC2F3846E0EFA0BFEDE
:102400004CEA0E0CC3F800C000BF206806F099FA31
:102410008146206806F07CFA8046B9F1000F78D139
:10242000B8F1000FFBD12168AA68286801F1140CEB
:10243000C0F3406B0CEB8B03D3F800C0C0F3045E19
:102440004FF0070B0BFA0EFB2CEA0B0CC0F3045BEE
:1024500002FA0BFB4CEA0B0CC3F800C000BFBD48EE
:10246000006800F07040B0F1805F08D168692168B1
:10247000C968C1F382014900884015E013E2206871
:10248000C06800F0100038B968692168C968C1F3F4
:1024900082014900884007E068692168C96801F045
:1024A00010018908490088400746286904283FD060
:1024B00020682A68296900F1600C0CEB8103D3F8CD
:1024C00000C00CF0004C02F0F84B4BEA070B4CEA52
:1024D0000B0CC3F800C000BF20686A7E2969012A7E
:1024E00001D1D20700E00022134600F1600C0CEB92
:1024F0008102D2F800C02CF0004C4CEA030CC2F868
:1025000000C000BF20682B7E2969012B02D1DB02AD
:1025100001E045E000231A46036923F4F04301F08B
:102520001F0C02FA0CFC43EA0C03036100BF37E006
:102530002068006E00F0F8402978B0EB816F05D17B
:102540002068006E20F00040216808662068406E18
:1025500000F0F8402978B0EB816F05D12068406E1B
:1025600020F00040216848662068806E00F0F84046
:102570002978B0EB816F05D12068806E20F0004093
:10258000216888662068C06E00F0F8402978B0EBBA
:10259000816F05D12068C06E20F000402168C866B8
:1025A000206806F0BFF900286FD12068EA68296822
:1025B000D0F8C0C0C1F313032CEA030C02F0180BCF
:1025C000654B23FA0BF30B404CEA030CC0F8C0C078
:1025D00000BF5C49E868884270D15B4B2068984234
:1025E0003DD15E4B2A689A4201D1012276E05C4BD4
:1025F0002A689A4201D15B4A70E05B4B2A689A4292
:1026000001D15A4A6AE05A4B2A689A4201D1594A82
:1026100064E0594B2A689A4201D1584A5EE0584B0F
:102620002A689A4201D1574A58E0564B2A689A4282
:1026300001D1554A52E0544B2A689A4201D1534A7B
:102640004CE0534B2A689A4201D1524A46E0524B21
:102650002A689A4201D1514A40E000223EE03B4BB9
:1026600022689A4239D13D4B2A689A4201D101220F
:1026700034E03B4B2A689A4201D13A4A2EE03A4B69
:102680002A689A4202D1394A28E0B4E0384B2A68D5
:102690009A4201D1374A21E0374B2A689A4201D148
:1026A000364A1BE0364B2A689A4201D1354A15E07A
:1026B000344B2A689A4202D1334A0FE023E0324B6E
:1026C0002A689A4201D1314A08E0334B2A689A427B
:1026D00001D1324A02E0002200E000221146C36923
:1026E000C1F3130212B9C1F3846203E091FAA1F2BB
:1026F000B2FA82F202F01F0C012202FA0CF213432A
:10270000C36100BF00BF286800F00040002872D0FD
:102710000D4A2168914203D00C4A2168914201D1AF
:102720001F4900E01F490846816801F0E07600BFBC
:1027300005492068884203D004492068884233D183
:10274000174832E00000FF4700200240002102400D
:10275000006002580010005CFFFF0F000200300410
:1027600004006008400020190800900C8000501DF3
:102770001000C010000180212000F0140002B025DC
:102780000004002A0008302E00106032002090362D
:1027900000002143000052470000844B0000B84F66
:1027A000002302400063025845484649884209D147
:1027B000454806F0B7F88346444806F0B3F84BEABC
:1027C000000002E0424806F0ADF8E8BB4149286845
:1027D000884227D106F4000020BB3D49206888428A
:1027E00067D1394B22689A4203D0384B22689A420B
:1027F00002D1344A01E032E0314A104646F4000189
:1028000006F0BAF8344800683449B0FBF1F0401CD7
:102810004000009002E00098401E009000980028C0
:10282000F9D146E02E492868884219D106F0807017
:10283000B0B92749206888423BD1234B22689A428D
:1028400005D0224B226800E026E09A4201D11D4AC1
:1028500000E01B4A104646F0807106F08DF828E033
:1028600020492868884224D106F4800008BB184912
:10287000206888421DD1144B22689A4203D0134B22
:1028800022689A4201D10F4A00E00D4A104646F4F0
:10289000800106F071F80CE0606D40F0200060658A
:1028A0004FF0010A05E0606D40F0200060654FF0D8
:1028B000010A00BF002084F8500000BF504661E5C7
:1028C0000063025800230240002002400021024021
:1028D00000600258000084CB28000024400D030053
:1028E000000052C70000B8CF10B50446044805F0F8
:1028F0008DFB04480078401C0249087010BD0000A0
:102900009421012402000024704770472DE9F84FFC
:102910000446002000902068056820684668CD4A7B
:102920002168914203D0CC4A2168914201D1CB4920
:1029300000E0CB49084605F0E6FF074605F0020037
:10294000022811D106F0020002280DD1606D00F0BE
:10295000100018B9606D40F4006060652046FFF714
:1029600031FC02202168086005F00400042803D12E
:1029700006F00400042807D005F0080008285DD1FF
:1029800006F00800082859D1606D00F0100018B951
:10299000606D40F400706065206805F0DCFF002881
:1029A00046D0AD492068884201D1AA4800E020689D
:1029B0002168884204D01FB1052F01D0092F03D10F
:1029C0002068D0F80C8009E0A3492068884201D132
:1029D000A04800E020688346DBF80C8008F4005033
:1029E000B0F5005F24D02068006800F008000828D7
:1029F0001ED1206805F0A5FF90B92068406820F03E
:102A00000C0021684860606D20F480706065606D26
:102A100000F4805060B9606D40F00100606507E02F
:102A2000606D40F010006065A06D40F00100A06591
:102A30002046FFF759FF0C202168086005F02000B0
:102A4000202803D106F02000202807D005F0400000
:102A5000402870D106F0400040286CD1606D00F035
:102A6000100018B9606D40F4005060652068C16CBA
:102A700001F4C07109B9012100E000218A4600BFBC
:102A8000206805F068FF814673492068884201D1BB
:102A9000704800E020682168884204D01FB1062FEA
:102AA00001D0072F03D12068D0F80C8009E06A49D3
:102AB0002068884201D1674800E020688346DBF83F
:102AC0000C80BAF1000F30D008F0007028B1B9F1D5
:102AD000000F2AD008F4005038BB2068006800F0CE
:102AE0004000402821D108F40010F0B9206805F01A
:102AF0000FFF90B92068406820F0600021684860AE
:102B0000606D20F480506065606D00F4807060B985
:102B1000606D40F00100606507E0606D40F01000FE
:102B20006065A06D40F00100A0652046FFF74BFBFB
:102B300060202168086005F0800080280DD106F033
:102B40008000802809D1606D40F4803060652046A7
:102B500000F0CEF980202168086005F48070B0F59F
:102B6000807F0FD106F48070B0F5807F0AD1606D50
:102B700040F4003060652046FFF727FB4FF480707B
:102B80002168086005F40070B0F5007F0FD106F4ED
:102B90000070B0F5007F0AD1606D40F48020606560
:102BA0002046FFF713FB4FF400702168086005F022
:102BB0001000102833D106F0100010282FD1206B00
:102BC00010B90120009019E08FB1224A216891428A
:102BD00003D0214A2168914201D1204900E02049D7
:102BE000084605F08BFE48B10120009006E0206801
:102BF000C06800F0030008B101200090009801288F
:102C00000AD1606D40F480606065A06D40F0020004
:102C1000A0652046FFF779FE10202168086005F4C2
:102C20008060B0F5806F13D106F48060B0F5806FDE
:102C30000ED1606D40F480406065A06D40F00800EA
:102C4000A0654FF48060216808602046FFF7BCFA59
:102C5000BDE8F88F0020024000210240002302401E
:102C6000006302582DE9F84F04464FF00009002098
:102C7000009014B90120BDE8F88FE06818B1207FFA
:102C8000012800D100BF606D30B9204600F032F954
:102C90000020A06584F8500020688168C1F340716D
:102CA00031B120688168874A1140816000BF00BF50
:102CB000206805F041FEA8B920688168824A114069
:102CC00041F08051816000BF804800688049B0FBBE
:102CD000F1F0401C009002E00098401E0090009827
:102CE0000028F9D1206805F027FE48B9606D40F052
:102CF00010006065A06D40F00100A0654FF0010973
:102D0000206805F01EFE0646606D00F010000028E9
:102D10007ED1002EFCD1606D20F4807040F0020066
:102D20006065206805F0FEFD78BB6A49206888422E
:102D300003D069492068884201D1684800E06848AA
:102D40006649884209D1634805F0ECFD8246624835
:102D500005F0E8FD4AEA000002E0624805F0E2FD05
:102D600098B95C4B22689A4203D05B4B22689A4226
:102D700001D15A4A00E05A4A10466168826822F43A
:102D80007C120A43826000BF00BF02F00FF941F2DB
:102D9000030188420ED9A06810280BD1607D216BF9
:102DA00041EA4030A168084340F00C01207F41EA2D
:102DB000004508E0607D216B41EA4030A16808438E
:102DC000217F40EA0145207F012803D1208C401E4D
:102DD00045EA4045606A28B1A08C00F47870A16A89
:102DE000084305432068C0683F49084028432168DC
:102DF000C860206805F0A5FD8046206805F088FDC4
:102E00000746B8F1000F3BD1D7BB207DE16A00E057
:102E100050E041EA80352068C06844F203018843ED
:102E200028432168C86094F83800012817D1606AE7
:102E300008B1A06A00B900BFA08F401E012141EA7D
:102E40000041206C0843616C0843A16C0843216871
:102E50000969264A114008432168086105E0206895
:102E6000006920F00100216808612068006920F0F5
:102E70007040616B0843216808612046FEF718FC2A
:102E8000E068012809D12068006B20F00F00A169DB
:102E9000491E08432168086305E02068006B20F0A4
:102EA0000F0021680863606D20F0020040F001000F
:102EB000606505E0606D40F0100060654FF001094D
:102EC0004846D8E6C0FFFF5FC0FFFF7F2800002410
:102ED000400D030000200240002102400023024078
:102EE000006302580060025803C0F0FF1EF800FCA7
:102EF0007047000010B5B2B00446C02102A8FDF72B
:102F000071FA35492068884264D14FF400210020CD
:102F1000CDE90210042004901221059104210691AC
:102F2000022107910891C021099100210A910B917A
:102F300000202B9002A803F06BF908B1FFF743F8CB
:102F400000BF2648006840F0200024490860084679
:102F5000006800F02000019000BF00BF00BF1F48C4
:102F60000830006840F001001C490831086008463C
:102F7000006800F00100019000BF00BF4FF08071B9
:102F8000084604F015FF16481649086009204860F5
:102F9000002114488160C1604FF4806101614900E3
:102FA0004161890081614911C16100210162416271
:102FB00001F06AFA08B1FFF706F800BF0948E064BB
:102FC000846300BF00221146122002F0EDF81220A7
:102FD00002F0D6F832B010BD00200240D8440258AA
:102FE000100002401C2101242DE9F04104460F4647
:102FF0009046434A2168914203D0424A2168914257
:1030000001D1414900E04149084605F07CFC0646F3
:10301000206805F096FC00286ED100BF94F850009F
:10302000012802D10220BDE8F081012084F850007F
:1030300000BF1EB1052E01D0092E57D12046FEF744
:1030400093FC0546002D4CD1606D40F6016188432C
:1030500040F4807060652B492068884201D128487F
:1030600000E020682168884200D01EB9606D20F41D
:1030700080106065606D00F4805020B1A06D20F07C
:103080000600A06501E00020A0652148E16CC8634E
:103090002048E16C08642048E16CC8641C20216869
:1030A000086000BF002084F8500000BF206840681E
:1030B00040F0100021684860E16A2068C26822F090
:1030C00003020A43C26000BF226802F14001434686
:1030D0003A46E06C01F068FC0546206805F044FCC7
:1030E0000BE000BF002084F8500006E0012500BF7F
:1030F000002084F8500000E00225284693E70000F5
:1031000000200240002102400023024000630258D8
:1031100015180008C5180008A71800082DE9F04187
:10312000044601F049FF804614B90120BDE8F08152
:1031300094F83500022808D08020606500BF002088
:1031400084F8340000BF0120F0E7FE49206888427F
:1031500049D0FC4918312068884244D0F9493031BF
:10316000206888423FD0F7494831206888423AD0E9
:10317000F44960312068884235D0F24978312068BE
:10318000884230D0EF499031206888422BD0ED49F9
:10319000A8312068884226D0EB492068884222D096
:1031A000E9491831206888421DD0E749303120684C
:1031B000884218D0E44948312068884213D0E24957
:1031C0006031206888420ED0DF497831206888421B
:1031D00009D0DD4990312068884204D0DA49A8310D
:1031E0002068884201D1012000E0002068B12068F9
:1031F000006820F01E00216808602068406920F007
:10320000800021684861256806E02068006820F099
:103210000E00216808602568CA492068884270D07D
:10322000C8491831206888426BD0C64930312068BF
:10323000884266D0C34948312068884261D0C1497C
:103240006031206888425CD0BE497831206888426D
:1032500057D0BC4990312068884252D0B949A83132
:10326000206888424DD0B8492068884249D0B64984
:1032700018312068884244D0B349303120688842F0
:103280003FD0B1494831206888423AD0AE496031D8
:103290002068884235D0AC4978312068884230D0E7
:1032A000A9499031206888422BD0A749A8312068CD
:1032B000884226D0A5492068884222D0A3491431EB
:1032C000206888421DD0A14928312068884218D042
:1032D0009E493C312068884213D09C495031206877
:1032E00088420ED0994964312068884209D09749B4
:1032F00078312068884204D094498C312068884213
:1033000001D1012000E0002028B1206E006820F4E7
:103310008070216E08608B492068884249D08949B5
:1033200018312068884244D086493031206888426C
:103330003FD084494831206888423AD08149603181
:103340002068884235D07F4978312068884230D063
:103350007C499031206888422BD07A49A831206876
:10336000884226D078492068884222D07649183190
:10337000206888421DD0744930312068884218D0B6
:10338000714948312068884213D06F496031206804
:1033900088420ED06C4978312068884209D06A4949
:1033A00090312068884204D06749A831206888425B
:1033B00006D12068006820F001002168086005E05F
:1033C0002068006820F001002168086011E001F029
:1033D000F3FDA0EB080005280BD920206065032031
:1033E00084F8350000BF002084F8340000BF0120BD
:1033F0009CE6286800F001000028E8D151492068C7
:10340000884249D04F4918312068884244D04D49FC
:103410003031206888423FD04A494831206888428C
:103420003AD0484960312068884235D045497831E2
:103430002068884230D043499031206888422BD0A0
:103440004049A8312068884226D03F4920688842F8
:1034500022D03D491831206888421DD03A49303188
:103460002068884218D0384948312068884213D0F3
:1034700035496031206888420ED033497831206860
:10348000884209D0304990312068884204D02E49C2
:10349000A8312068884201D1012000E0002040B11D
:1034A000A66D94F85C0000F01F013F208840B060DA
:1034B00007E0A76D94F85C0000F01F010120884030
:1034C000786020492068884276D01E4918312068EB
:1034D000884271D01B493031206888426CD019492C
:1034E00048312068884267D0164960312068884298
:1034F00062D014497831206888425DD011499031FA
:103500002068884258D00F49A8312068884253D09B
:103510000D49206888424FD00B49183120688842F5
:103520004AD0094930312068884245D0064948319F
:103530002068884240D004496031206888423BD0EE
:10354000014905E0100002401004024008540258EE
:103550007831206888422FD02549206888422BD0B6
:10356000234918312068884226D0224920688842A1
:1035700022D020491431206888421DD01D492831AD
:103580002068884218D01B493C312068884213D0FB
:1035900018495031206888420ED01649643120689D
:1035A000884209D0134978312068884204D01149F3
:1035B0008C312068884201D1012000E0002068B1F0
:1035C000D4E919104860E06E40B1E06E006820F464
:1035D0008070E16E0860D4E91C104860012084F816
:1035E000350000BF002084F8340000BF00BF9DE517
:1035F000A00402400854025870B504460CB90120DA
:1036000070BD94F83500022803D080206065012049
:10361000F6E7DC492068884249D0DA491831206849
:10362000884244D0D7493031206888423FD0D549BC
:103630004831206888423AD0D249603120688842B7
:1036400035D0D04978312068884230D0CD4990318A
:10365000206888422BD0CB49A8312068884226D0E8
:10366000C9492068884222D0C74918312068884259
:103670001DD0C54930312068884218D0C249483130
:103680002068884213D0C0496031206888420ED03B
:10369000BD4978312068884209D0BB499031206803
:1036A000884204D0B849A8312068884201D101205D
:1036B00000E00020F0B3042084F83500B149206810
:1036C00088424BD0AF4918312068884246D0AD4976
:1036D00030312068884241D0AA4948312068884268
:1036E0003CD0A84960312068884237D0A54978315C
:1036F0002068884232D0A3499031206888422DD07A
:10370000A049A8312068884228D09F492068884273
:1037100024D09D491831206888421FD09A49303101
:10372000206888421AD0984948312068884215D0CC
:10373000954900E020E06031206888420ED092492F
:1037400078312068884209D08F49903120688842BA
:1037500004D08D49A8312068884206D120680068CD
:1037600020F001002168086009E12068006820F06D
:1037700001002168086002E12068006820F00E0066
:10378000216808607F492068884249D07D49183106
:103790002068884244D07B493031206888423FD03D
:1037A00078494831206888423AD0764960312068AB
:1037B000884235D0734978312068884230D07149C9
:1037C0009031206888422BD06E49A8312068884209
:1037D00026D06D492068884222D06B491831206874
:1037E00088421DD0684930312068884218D0664927
:1037F00048312068884213D063496031206888428C
:103800000ED0614978312068884209D05E499031F4
:103810002068884204D05C49A8312068884206D1DB
:103820002068006820F001002168086005E0206839
:10383000006820F001002168086052492068884231
:1038400070D050491831206888426BD04D493031D2
:103850002068884266D04B4948312068884261D050
:1038600048496031206888425CD0464978312068F8
:10387000884257D0434990312068884252D041490C
:10388000A831206888424DD03F492068884249D0FD
:103890003D4918312068884244D03B493031206886
:1038A00088423FD038494831206888423AD036496A
:1038B00060312068884235D03349783120688842A9
:1038C00030D031499031206888422BD02E49A83120
:1038D0002068884226D02D492068884222D02B4972
:1038E0001431206888421DD0284928312068884238
:1038F00018D026493C312068884213D023495031E2
:10390000206888420ED0214964312068884209D05D
:103910001E4978312068884204D01C498C312068C7
:10392000884201D1012000E00020D8B1206E00685B
:1039300020F48070216E0860A56D94F85C0000F0A2
:103940001F01012088406860D4E919104860E06ECA
:1039500040B1E06E006820F48070E16E0860D4E948
:103960001C104860012084F8350000BF002084F856
:10397000340000BF206D10B12046216D8847002023
:103980003EE60000100002401004024008540258B5
:103990002DE9F84F044600200090FE4800684FF4DF
:1039A0001651B0FBF1FAA66DD4F858803768D8F8F4
:1039B0000090F9492068884249D0F74918312068B9
:1039C000884244D0F4493031206888423FD0F249DF
:1039D0004831206888423AD0EF49603120688842F7
:1039E00035D0ED4978312068884230D0EA499031AD
:1039F000206888422BD0E849A8312068884226D028
:103A0000E6492068884222D0E4491831206888427B
:103A10001DD0E24930312068884218D0DF49483152
:103A20002068884213D0DD496031206888420ED07A
:103A3000DA4978312068884209D0D8499031206825
:103A4000884204D0D549A8312068884201D101209C
:103A500000E0002000287DD094F85C0000F01F01F9
:103A6000082088403840002868D0CB492068884228
:103A700049D0C94918312068884244D0C6493031FC
:103A8000206888423FD0C4494831206888423AD0F3
:103A9000C14960312068884235D0BF4978312068FB
:103AA000884230D0BC499031206888422BD0BA4936
:103AB000A8312068884226D0B8492068884222D0A0
:103AC000B6491831206888421DD0B4493031206889
:103AD000884218D0B14948312068884213D0AF4994
:103AE0006031206888420ED0AC4978312068884225
:103AF00009D0AA4990312068884204D0A749A8314A
:103B00002068884204D12068006800F0040003E0C7
:103B10002068006800F0080080B12068006820F08C
:103B200004002168086094F85C0000F01F01082080
:103B30008840B060606D40F00100606594F85C0002
:103B400000F01F01012088403840E8B39249206806
:103B5000884200E0B7E24BD08F4918312068884294
:103B600046D08D4930312068884241D08A49483159
:103B7000206888423CD0884960312068884237D02C
:103B8000854978312068884232D083499031206855
:103B900088422DD08049A8312068884228D07F49AA
:103BA0002068884224D07D491831206888421FD07F
:103BB0007A493031206888421AD0784948312068E3
:103BC000884215D0754900E026E0603120688842BF
:103BD0000ED0724978312068884209D06F499031FF
:103BE0002068884204D06D49A8312068884204D1F9
:103BF0002068406900F0800002E020680068002032
:103C000050B194F85C0000F01F0101208840B060C2
:103C1000606D40F00200606594F85C0000F01F01E8
:103C2000042088403840E8B35B49206888424BD084
:103C3000594918312068884246D0574930312068A8
:103C4000884241D054494831206888423CD052498A
:103C500060312068884237D04F49783120688842E7
:103C600032D04D499031206888422DD04A49A83140
:103C70002068884228D049492068884224D0474992
:103C80001831206888421FD044493031206888426A
:103C90001AD0424948312068884215D03F496031E6
:103CA000206800E024E088420ED03C49783120684A
:103CB000884209D0394990312068884204D0374978
:103CC000A8312068884204D12068006800F0020012
:103CD00002E020680068002050B194F85C0000F019
:103CE0001F0104208840B060606D40F004006065F2
:103CF00094F85C0000F01F01102088403840E8B3C1
:103D000025492068884251D02349183120688842CB
:103D10004CD0214930312068884247D01E49483173
:103D20002068884242D01C496031206888423DD0DA
:103D3000194978312068884238D017499031206875
:103D4000884233D01449A831206888422ED01349C4
:103D5000206888422AD0114918312068884225D02D
:103D60000E4930312068884220D00C494831206803
:103D700088421BD009496031206800E04DE088424C
:103D800014D006497831206888420FD00349903119
:103D9000206805E0280000241000024010040240C2
:103DA000884203D0FE492068884204D12068006818
:103DB00000F0080003E02068006800F0040060B331
:103DC00094F85C0000F01F0110208840B06020686B
:103DD000006800F4802080B12068006800F40020B2
:103DE00028B9206CC8B12046216C884715E0A06C2A
:103DF00098B12046A16C88470FE02068006800F465
:103E0000807028B92068006820F0080021680860E8
:103E1000206C10B12046216C884794F85C0000F0BB
:103E20001F0120208840384000287DD0DD492068CF
:103E3000884249D0DB4918312068884244D0D949AA
:103E40003031206888423FD0D649483120688842C6
:103E50003AD0D44960312068884235D0D149783190
:103E60002068884230D0CF499031206888422BD0DA
:103E7000CC49A8312068884226D0C949A839206891
:103E8000884221D0C6499039206888421CD0C44954
:103E900078392068884217D0C14960392068884243
:103EA00012D0BF494839206888420DD0BC4930390A
:103EB0002068884208D0BA4918392068884203D05F
:103EC000B7492068884204D12068006800F01000DB
:103ED00003E02068006800F0020028B394F85C005A
:103EE00000F01F0120208840B06094F835000428BD
:103EF0002DD12068006820F0160021680860206835
:103F0000406920F0800021684861206C08B9A06CED
:103F100028B12068006820F008002168086094F843
:103F20005C0000F01F0100E03FE03F208840B060EF
:103F3000012084F8350000BF002084F8340000BF61
:103F4000206D10B12046216D8847BDE8F88F2068AC
:103F5000006800F4802080B12068006800F4002030
:103F600028B9606C08B32046616C88471DE0E06B9F
:103F7000D8B12046E16B884717E02068006800F45C
:103F8000807068B92068006820F01000216808601F
:103F9000012084F8350000BF002084F8340000BF01
:103FA000E06B10B12046E16B8847606D00287AD045
:103FB000606D00F00100E8B3042084F83500794911
:103FC000206888424BD0774918312068884246D013
:103FD000744930312068884241D0724948312068A4
:103FE00088423CD06F4960312068884237D06D49A3
:103FF00078312068884232D06A49903120688842FE
:104000002DD06849A8312068884228D06449A83951
:104010002068884223D062499039206888421ED0A7
:104020005F4978392068884219D05D496039206835
:10403000884200E040E012D059494839206888425F
:104040000DD0574930392068884208D05449183972
:104050002068884203D052492068884206D12068EF
:10406000006820F001002168086005E02068006811
:1040700020F001002168086000BF0098401C0090FB
:10408000504500D905E02068006800F001000028D4
:10409000F3D100BF2068006800F0010020B10320C8
:1040A00084F8350003E00DE0012084F8350000BFFE
:1040B000002084F8340000BFE06C002802D02046C5
:1040C000E16C8847D9E138492068884222D03649D6
:1040D0001431206888421DD0334928312068884235
:1040E00018D031493C312068884213D02E495031D4
:1040F000206888420ED02C4964312068884209D05B
:10410000294978312068884204D027498C312068B9
:10411000884201D1012000E000200028D2D0206890
:10412000056894F85C0000F01F010420884000EA54
:104130000900D8B305F00400C0B394F85C0000F0A7
:104140001F0104208840C8F8040005F4004080B135
:1041500005F4803030B9A06C0028B3D02046A16CA3
:1041600088478AE1206C0028ACD02046216C884723
:1041700083E105F02000E8BB0A492068884253D05B
:1041800008491831206888424ED0064930312068ED
:10419000884249D0034948312068884244D006E02B
:1041A000B804024010000240085402584FE0B449DD
:1041B00060312068884237D0B14978312068884220
:1041C00032D0AF499031206888422DD0AC49A83117
:1041D0002068884228D0AB492068884224D0A94969
:1041E0001831206888421FD0A649303120688842A3
:1041F0001AD000E025E0A34948312068884213D056
:10420000A0496031206888420ED09E4978312068EC
:10421000884209D09B4990312068884204D099494E
:10422000A8312068884206D12068006820F0080084
:104230002168086005E02068006820F0040021681B
:104240000860206C10B32046216C884715E194F873
:104250005C0000F01F010220884000EA0900E8B37A
:1042600005F00200D0B394F85C0000F01F010220BA
:104270008840C8F8040005F4004070B105F48030AF
:1042800028B9606C10B12046616C8847F5E0E06B9E
:10429000F0B32046E16B8847EFE005F02000C0BB9B
:1042A0007749206888424ED0754918312068884285
:1042B00049D0734930312068884244D07049483130
:1042C000206888423FD06E496031206888423AD0E9
:1042D0006B4978312068884235D000E04EE068496B
:1042E0009031206888422ED06549A83120688842E4
:1042F00029D064492068884225D062491831206855
:10430000884220D05F493031206888421BD001E0CC
:104310006EE02DE05B4948312068884213D059494E
:104320006031206888420ED0564978312068884232
:1043300009D0544990312068884204D05149A831AD
:104340002068884206D12068006820F014002168A7
:10435000086005E02068006820F00A002168086015
:10436000012084F8350000BF002084F8340000BF2D
:10437000E06BE8B32046E16B88477EE094F85C0090
:1043800000F01F010820884000EA090080B305F012
:10439000080068B33A49206888424BD03849183140
:1043A0002068884246D0364930312068884241D062
:1043B00033494831206888423CD031496031206817
:1043C000884237D02E4978312068884232D02C4933
:1043D0009031206888422DD02949A8312068884230
:1043E00028D028492068884224D02649183100E086
:1043F00043E0206888421DD022493031206888423D
:1044000018D0204948312068884213D01D496031B6
:10441000206888420ED01B4978312068884209D034
:10442000184990312068884204D01649A831206884
:10443000884206D12068006820F01C0021680860CE
:1044400005E02068006820F00E002168086094F8FC
:104450005C0000F01F0101208840C8F80400012022
:10446000606584F8350000BF002084F8340000BF88
:10447000E06C10B12046E16C884700BF65E50000A4
:1044800010000240100402402DE9F041044600F003
:1044900093FD804614B90120BDE8F081FE492068F3
:1044A000884249D0FC4918312068884244D0FA49F2
:1044B0003031206888423FD0F7494831206888422F
:1044C0003AD0F54960312068884235D0F2497831D8
:1044D0002068884230D0F0499031206888422BD043
:1044E000ED49A8312068884226D0EC4920688842EE
:1044F00022D0EA491831206888421DD0E74930317E
:104500002068884218D0E54948312068884213D095
:10451000E2496031206888420ED0E0497831206855
:10452000884209D0DD4990312068884204D0DB49B7
:10453000A8312068884201D1012000E00020002835
:1045400073D0606A00B100BF022084F8350000BF5C
:10455000002084F8340000BFCF492068884249D049
:10456000CD4918312068884244D0CB493031206889
:1045700088423FD0C8494831206888423AD0C6496D
:1045800060312068884235D0C3497831206888423C
:1045900030D0C1499031206888422BD0BE49A83123
:1045A0002068884226D0BD492068884222D0BB4975
:1045B0001831206888421DD0B849303120688842BF
:1045C00018D0B64948312068884213D0B3496031C9
:1045D000206888420ED0B14978312068884209D0DD
:1045E000AE4990312068884204D0AC49A831206897
:1045F000884206D12068006820F001002168086028
:1046000005E02068006820F00100216808600DE0E6
:1046100000F0D2FCA0EB0800052807D92020606537
:10462000032084F83500012036E76AE0206800683E
:1046300000F001000028EBD120680568984805408B
:10464000D4E9020108432169084361690843A1696B
:104650000843E1690843216A08430543606A042866
:1046600003D1D4E90B01084305438E4800686FF37A
:104670000F00B0F1005F1DD36068292802D3606885
:104680002E2811D960683F2802D3606842280BD9D0
:104690006068472802D36068482805D960684F28B9
:1046A00004D36068522801D8012000E0002008B13E
:1046B00045F48015206805602068456925F00705E8
:1046C000606A0543606A04280DD1A06A0543E06A68
:1046D00048B12046FDF7E4FA28B14020606501208A
:1046E00084F83500D8E6206845612046FDF7B4F926
:1046F000064694F85C0000F01F013F208840B0603F
:104700009EE069492068884222D0674914312068B8
:1047100088421DD0644928312068884218D06249F7
:104720003C312068884213D05F495031206888426C
:104730000ED05D4964312068884209D05A497831E9
:104740002068884204D058498C312068884201D1C1
:10475000012000E00020E0B353492068884222D0C5
:1047600051491431206888421DD04F4928312068B2
:10477000884218D04C493C312068884213D04A49BD
:104780005031206888420ED0474964312068884201
:1047900009D0454978312068884204D042498C319B
:1047A0002068884201D1012000E0002000B100BF54
:1047B000022084F8350000BF002084F8340000BFD8
:1047C0002068056839480540A068402802D11021BA
:1047D00006E02EE0A068802801D1C10100E00021A0
:1047E000E06841EAD001206941EAD001606941EA0C
:1047F000D001A06941EAD001E06941EAD001206A14
:1048000041EA101005432068056027492068401AD6
:104810001421B0FBF1F08000E0652046FDF71CF9A3
:10482000074694F85C0000F01F0101208840786082
:1048300006E040206065032084F8350001202BE667
:104840001549206888427FD0134918312068884272
:104850007AD0114930312068884275D00E494831EC
:104860002068884270D00C496031206888426BD043
:10487000094978312068884266D00749903120681C
:10488000884261D00449A831206888425CD003493D
:104890002068884258D00BE010000240100402400B
:1048A0003F8010FE0010005C085402580F00FEFF0D
:1048B0003B4918312068884246D039493031206858
:1048C000884241D036494831206888423CD034493A
:1048D00060312068884237D0314978312068884279
:1048E00032D02F499031206888422DD02C49A831F0
:1048F0002068884228D02B492068884224D0294942
:104900001431206888421FD0264928312068884207
:104910001AD024493C312068884215D021495031B1
:104920002068884210D01F496431206888420BD02B
:104930001C4978312068884206D01A498C31206899
:10494000884200E000E001D1012000E0002000B337
:104950002046FDF7F7F8A068802801D100206060AC
:104960002079216E0860D4E919104860606860B150
:104970006068082809D82046FDF746F90020E16E56
:104980000860D4E91C10486003E00020E06620675E
:10499000606700206065012084F8350000207BE519
:1049A00010040240085402582DE9F04104460D4617
:1049B00016461F464FF0000814B90120BDE8F081EB
:1049C00000BF94F83400012801D10220F6E701204D
:1049D00084F8340000BF94F8350001287ED102200D
:1049E00084F8350000206065E4492068884249D099
:1049F000E24918312068884244D0E04930312068CB
:104A000088423FD0DD494831206888423AD0DB49AE
:104A100060312068884235D0D84978312068884292
:104A200030D0D6499031206888422BD0D349A83164
:104A30002068884226D0D2492068884222D0D049B6
:104A40001831206888421DD0CD4930312068884215
:104A500018D0CB4948312068884213D0C84960310A
:104A6000206888420ED0C64978312068884209D033
:104A7000C34990312068884204D0C149A8312068D8
:104A8000884206D12068006820F001002168086093
:104A900005E02068006820F00100216808603B46BE
:104AA000324629462046FDF753F9B449206888422A
:104AB0004BD0B24918312068884246D0AF493031D6
:104AC0002068884241D0AD494831206888423CD0B6
:104AD000AA4960312068884237D000E042E1A74906
:104AE00078312068884230D0A449903120688842CB
:104AF0002BD0A249A8312068884226D0A04920683E
:104B0000884222D09E491831206888421DD09C4995
:104B100030312068884218D099494831206888424D
:104B200013D097496031206888420ED0944978317B
:104B30002068884209D0924990312068884204D088
:104B40008F49A8312068884201D1012000E000206F
:104B500080B12068006820F01E0040F01600216837
:104B60000860206CB0B12068006840F0080021683F
:104B700008600FE02068006820F00E0040F00A0096
:104B800021680860206C28B12068006840F00400AB
:104B90002168086079492068884270D077491831C7
:104BA000206888426BD0754930312068884266D0D1
:104BB000724948312068884261D07049603120686C
:104BC00088425CD06D4978312068884257D06B4963
:104BD00090312068884252D06849A83120688842C4
:104BE0004DD067492068884249D06549183120680E
:104BF000884244D062493031206888423FD06049C1
:104C00004831206888423AD05D4960312068884246
:104C100035D05B4978312068884230D0584990318E
:104C2000206888422BD05649A8312068884226D077
:104C300054492068884222D0524914312068884261
:104C40001DD0504928312068884218D04D493C3148
:104C50002068884213D04B495031206888420ED0DA
:104C6000484964312068884209D046497831206833
:104C7000884204D043498C312068884201D1012008
:104C800000E0002090B1206E006800F4803028B170
:104C9000206E006840F48070216E0860E06E28B1DC
:104CA000E06E006840F48070E16E0860334920686F
:104CB000884249D0314918312068884244D02F4970
:104CC0003031206888423FD02C49483120688842E2
:104CD0003AD02A4960312068884235D02749783156
:104CE0002068884230D025499031206888422BD0F6
:104CF0002249A8312068884226D02149206888426C
:104D000022D01F491831206888421DD01C493031FB
:104D10002068884218D01A4948312068884213D048
:104D200017496031206888420ED0154978312068D3
:104D3000884209D0124990312068884204D0104935
:104D4000A8312068884206D12068006840F0010040
:104D50002168086010E02068006840F001002168C8
:104D6000086009E04FF40060606500BF002084F82F
:104D7000340000BF4FF0010840461FE6100002401B
:104D8000100402400854025870B5044600F014F9AB
:104D900006462546681C10B104480078054400BF4B
:104DA00000F00AF9801BA842FAD370BD2400002449
:104DB000F8B502460B4600216F4DD7E001278F4022
:104DC0001E6806EA0704002C72D01E7906F003065E
:104DD000012E04D01E7906F00306022E13D190682E
:104DE0004F000326BE40B0434F00DE68BE40304354
:104DF0009060506801268E40B0431E79C6F30016BD
:104E00008E40304350601E7906F00306032E09D011
:104E1000D0684F000326BE40B0434F009E68BE409E
:104E20003043D0601E7906F00306022E13D1CF085E
:104E300002F1200656F827004E07F70E0F26BE4057
:104E4000B0434F07FF0E1E69BE403043CF0802F14A
:104E5000200646F8270010684F000326BE40B043E6
:104E60001E7906F003064F00BE40304310605E68B6
:104E700006F44036002E78D000BF404E366846F02B
:104E800002063E4F3E603E46366806F00206009639
:104E900000BF00BF3A4E8F0856F827008E07370F25
:104EA0000F26BE40B043374EB24202D100262EE05C
:104EB0005BE0354EB24201D1012628E0334EB242CA
:104EC00001D1022623E0324EB24201D103261EE078
:104ED000304EB24201D1042619E02F4EB24201D128
:104EE000052614E02D4EB24201D106260FE02C4ECD
:104EF000B24201D107260AE02A4EB24201D1082669
:104F000005E0294EB24201D1092600E00A268F07AA
:104F10003F0FBE4030431A4E8F0846F827004FF02F
:104F2000B0463068A0435E6806F4801606B12043A0
:104F30004FF0B04630607068A0435E6806F400161B
:104F400006B120434FF0B04670606868A0435E68C9
:104F500006F4003606B1204368602868A0435E6806
:104F600006F4803606B120432860491C1E68CE40F6
:104F7000002E7FF423AFF8BD80000058F44402589F
:104F800008040058000002580004025800080258A3
:104F9000000C025800100258001402580018025861
:104FA000001C0258002002580024025801480068E2
:104FB000000C70470010005C01480068704700005A
:104FC0001C0000240348006803490978084401498B
:104FD000086070471C0000242400002410B5032042
:104FE00000F020F902F0A2F910490968C1F3032189
:104FF0000F4A515C01F01F0120FA01F40B480068D0
:1050000000F00F001146085C00F01F0024FA00F0C9
:1050100008490860084804600F2000F00FF808B144
:10502000012010BD00F09AF80020FAE71844025859
:10503000A0C300082C0000242800002470B50446FA
:105040001148007808B9012070BD0F4800784FF46E
:105050007A71B1FBF0F00D490968B1FBF0F5284613
:1050600002F0B0FE08B10120EEE7102C07D20022BA
:105070002146501E00F098F80548046001E0012028
:10508000E2E70020E0E700002400002428000024DC
:10509000200000244178154A11601449083109683C
:1050A00021F00101114A08321160121F416811609C
:1050B000017B0907C27A41EA0261827A41EAC24170
:1050C000427B41EA8241827B41EA4241C27B41EA22
:1050D0000241427A41EA0221027A41EA420102781F
:1050E0001143024A083211607047000098ED00E059
:1050F00000BF00BF00BFBFF35F8F00BF00BF00BF96
:105100000548006820F48030034908600020024907
:10511000703108607047000024ED00E040F00101AC
:105120000D4A11600C497039096841F480310A4A0E
:10513000703A116000BF00BF00BFBFF34F8F00BFC8
:1051400000BF00BF00BF00BF00BFBFF36F8F00BF35
:1051500000BF00BF7047000094ED00E008B500BF3D
:105160000648006840F002000449086008460068EC
:1051700000F00200009000BF00BF08BDF4440258D8
:105180000146084600280DDB00BF00BF00F01F03EA
:1051900001229A4043099B0003F1E023C3F8002158
:1051A00000BF00BF00BF70472DE9F05F80460D468D
:1051B000164605F059F8074639462A46334601F0A7
:1051C0000700C0F1070ABAF1040F02D94FF0040A30
:1051D00001E0C0F1070AD14600F1040ABAF1070F55
:1051E00002D24FF0000A01E0A0F1030AD4464FF0CA
:1051F000010A0AFA09FAAAF1010A0AEA020A0AFAF3
:105200000CFA4FF0010B0BFA0CFBABF1010B0BEAA4
:10521000030B4AEA0B042146404605F02DF8BDE891
:10522000F09F000000BF00F00702064B19684FF620
:10523000FF031940044B0B4343EA0221014B196061
:1052400000BF70470CED00E00000FA0570B50446A1
:1052500015480068C0F3800048B91348006800F0A2
:105260000700A04201D0012070BD0020FCE70E48DD
:10527000006820F0070020430B490860FFF79CFE00
:10528000054607E0FFF798FE401BB0F57A7F01D98D
:105290000120E9E7044808380068C0F340300028DE
:1052A000F0D00020E0E700000C48025810B501F0F3
:1052B000F3FF05490968C1F30211044A515C01F08A
:1052C0001F01C84010BD000020440258A0C30008C0
:1052D00070B50146844D2D6805F00303824D2D689D
:1052E000C5F30510804D2D1D2D6805F001047E4D80
:1052F0000C352D68C5F3CC0515FB04F501EE105AED
:10530000B8EE411AF0EE410A00286FD023B1012B0C
:105310004ED0022B6BD16BE0734D283D2D68C5F349
:1053200040153DB3704D283D2D68C5F3C1066F4D46
:1053300025FA06F201EE102AF8EE411A01EE100AE3
:10534000B8EE411A81EE812A9FED691AC0EE811AEA
:10535000654D08352D68C5F3080501EE105AB8EE05
:10536000411A31EE811AF7EE001A31EE211A22EEBF
:10537000010A1CE001EE100AB8EE411ADFED5D1AD9
:1053800081EE812A9FED5A1AC0EE811A564D0835DA
:105390002D68C5F3080501EE105AB8EE411A31EE3A
:1053A000811AF7EE001A31EE211A22EE010A5BE0B3
:1053B00001EE100AB8EE411ADFED4F1A81EE812A94
:1053C0009FED4B1AC0EE811A474D08352D68C5F385
:1053D000080501EE105AB8EE411A31EE811AF7EEC7
:1053E000001A31EE211A22EE010A3DE077E01DE0BD
:1053F00001EE100AB8EE411A9FED402AC2EE011AE2
:105400009FED3B1A80EE812A374D08352D68C5F394
:10541000080501EE105AB8EE411A32EE011AB7EE45
:10542000002A31EE021A21EE810A1DE001EE100A77
:10543000B8EE411ADFED2F1A81EE812A9FED2C1A6A
:10544000C0EE811A284D08352D68C5F3080501EE18
:10545000105AB8EE411A31EE811AF7EE001A31EE09
:10546000211A22EE010A00BF00BF1F4D08352D682A
:10547000C5F3462501EE105AB8EE411AF7EE001AB0
:1054800031EE211AC0EE011ABCEEE11A81ED001ACC
:10549000154D08352D68C5F3064501EE105AB8EED6
:1054A000411AF7EE001A31EE211AC0EE011ABCEED5
:1054B000E11A81ED011A0C4D08352D68C5F306651A
:1054C00001EE105AB8EE411AF7EE001A31EE211A29
:1054D000C0EE011ABCEEE11A81ED021A03E00025CC
:1054E0000D604D608D6070BD284402580090D0035F
:1054F000000000460024744C0024744A20BCBE4BBB
:1055000070B50146844D2D6805F00303824D2D686A
:10551000C5F30530804D2D1D2D68C5F300147E4D5B
:1055200014352D68C5F3CC0515FB04F501EE105AB2
:10553000B8EE411AF0EE410A00286FD023B1012BDA
:105540004ED0022B6BD16BE0734D283D2D68C5F317
:1055500040153DB3704D283D2D68C5F3C1066F4D14
:1055600025FA06F201EE102AF8EE411A01EE100AB1
:10557000B8EE411A81EE812A9FED691AC0EE811AB8
:10558000654D10352D68C5F3080501EE105AB8EECB
:10559000411A31EE811AF7EE001A31EE211A22EE8D
:1055A000010A1CE001EE100AB8EE411ADFED5D1AA7
:1055B00081EE812A9FED5A1AC0EE811A564D1035A0
:1055C0002D68C5F3080501EE105AB8EE411A31EE08
:1055D000811AF7EE001A31EE211A22EE010A5BE081
:1055E00001EE100AB8EE411ADFED4F1A81EE812A62
:1055F0009FED4B1AC0EE811A474D10352D68C5F34B
:10560000080501EE105AB8EE411A31EE811AF7EE94
:10561000001A31EE211A22EE010A3DE077E01DE08A
:1056200001EE100AB8EE411A9FED402AC2EE011AAF
:105630009FED3B1A80EE812A374D10352D68C5F35A
:10564000080501EE105AB8EE411A32EE011AB7EE13
:10565000002A31EE021A21EE810A1DE001EE100A45
:10566000B8EE411ADFED301A81EE812A9FED2C1A37
:10567000C0EE811A284D10352D68C5F3080501EEDE
:10568000105AB8EE411A31EE811AF7EE001A31EED7
:10569000211A22EE010A00BF00BF1F4D10352D68F0
:1056A000C5F3462501EE105AB8EE411AF7EE001A7E
:1056B00031EE211AC0EE011ABCEEE11A81ED001A9A
:1056C000154D10352D68C5F3064501EE105AB8EE9C
:1056D000411AF7EE001A31EE211AC0EE011ABCEEA3
:1056E000E11A81ED011A0C4D10352D68C5F30665E0
:1056F00001EE105AB8EE411AF7EE001A31EE211AF7
:10570000C0EE011ABCEEE11A81ED021A03E0002599
:105710000D604D608D6070BD284402580090D0032C
:10572000000000460024744C0024744A20BCBE4B88
:1057300070B50146844D2D6805F00303824D2D6838
:10574000C5F30550804D2D1D2D68C5F300247E4DF9
:105750001C352D68C5F3CC0515FB04F501EE105A78
:10576000B8EE411AF0EE410A00286FD023B1012BA8
:105770004ED0022B6BD16BE0734D283D2D68C5F3E5
:1057800040153DB3704D283D2D68C5F3C1066F4DE2
:1057900025FA06F201EE102AF8EE411A01EE100A7F
:1057A000B8EE411A81EE812A9FED691AC0EE811A86
:1057B000654D18352D68C5F3080501EE105AB8EE91
:1057C000411A31EE811AF7EE001A31EE211A22EE5B
:1057D000010A1CE001EE100AB8EE411ADFED5D1A75
:1057E00081EE812A9FED5A1AC0EE811A564D183566
:1057F0002D68C5F3080501EE105AB8EE411A31EED6
:10580000811AF7EE001A31EE211A22EE010A5BE04E
:1058100001EE100AB8EE411ADFED4F1A81EE812A2F
:105820009FED4B1AC0EE811A474D18352D68C5F310
:10583000080501EE105AB8EE411A31EE811AF7EE62
:10584000001A31EE211A22EE010A3DE077E01DE058
:1058500001EE100AB8EE411A9FED402AC2EE011A7D
:105860009FED3B1A80EE812A374D18352D68C5F320
:10587000080501EE105AB8EE411A32EE011AB7EEE1
:10588000002A31EE021A21EE810A1DE001EE100A13
:10589000B8EE411ADFED301A81EE812A9FED2C1A05
:1058A000C0EE811A284D18352D68C5F3080501EEA4
:1058B000105AB8EE411A31EE811AF7EE001A31EEA5
:1058C000211A22EE010A00BF00BF1F4D18352D68B6
:1058D000C5F3462501EE105AB8EE411AF7EE001A4C
:1058E00031EE211AC0EE011ABCEEE11A81ED001A68
:1058F000154D18352D68C5F3064501EE105AB8EE62
:10590000411AF7EE001A31EE211AC0EE011ABCEE70
:10591000E11A81ED011A0C4D18352D68C5F30665A5
:1059200001EE105AB8EE411AF7EE001A31EE211AC4
:10593000C0EE011ABCEEE11A81ED021A03E0002567
:105940000D604D608D6070BD284402580090D003FA
:10595000000000460024744C0024744A20BCBE4B56
:105960002DE9F04389B006460F464FF4807186EA70
:105970000100384370D1F748006800F00709B9F119
:10598000050F65D2DFE809F0031221623000F1480B
:105990005038006800F00070B0F1007F04D106A814
:1059A000FFF796FC079C00E0002453E0E9485038DC
:1059B000006800F00060B0F1006F04D103A8FFF7A9
:1059C0009FFD039C00E0002444E0E248503800685A
:1059D00000F00050B0F1005F04D16846FFF7A8FE68
:1059E000009C00E0002435E0DA48001F006800F069
:1059F0004055D8485038006800F00400042809D108
:105A000045B9D44850380068C0F3C101D24820FAE3
:105A100001F41AE0CF485038006800F48070B0F507
:105A2000807F04D1B5F1805F01D1CC4C0DE0C94835
:105A30005038006800F40030B0F5003F04D1B5F1F3
:105A4000005F01D1C64C00E0002403E0C54C01E03A
:105A5000002400BFD4E3FFE74FF4007186EA0100A1
:105A600038437AD1BB48006800F4E079B9F1800F7F
:105A70002CD006DCB9F1000F0AD0B9F1400F69D182
:105A800015E0B9F1C00F63D0B9F5807F62D12CE089
:105A9000B0485038006800F00070B0F1007F04D1C9
:105AA00006A8FFF715FC079C00E0002454E0A94875
:105AB0005038006800F00060B0F1006F04D103A816
:105AC000FFF71EFD039C00E0002445E0A14850388C
:105AD000006800F00050B0F1005F04D16846FFF7A5
